:020000040800F2
:1000000020050020D9800008397E00083B7E0008CA
:10001000437E0008457E0008477E0008000000007F
:100020000000000000000000000000005D5100081A
:10003000497E00080000000005510008634B0008DD
:100040008181000885810008898100088D81000870
:100050009181000895810008998100089D81000820
:10006000A1810008A5810008A9810008AD810008D0
:10007000B1810008B5810008B9810008BD81000880
:10008000C1810008C5810008C9810008CD81000830
:10009000D1810008D5810008D9810008DD810008E0
:1000A000E18100084B7E0008E5810008E981000835
:1000B000ED810008F1810008F5810008F981000850
:1000C000FD810008018200080582000809820008FD
:1000D0000D820008118200081582000819820008AC
:1000E0001D8200082182000825820008298200085C
:1000F0002D820008557E00083182000835820008F4
:10010000398200083D8200084182000845820008CB
:100110005F7E0008697E0008498200084D82000861
:100120005182000855820008598200085D8200084B
:100130006182000865820008698200086D820008FB
:100140007182000875820008798200087D820008AB
:100150008182000885820008898200088D8200085B
:100160009182000895820008998200089D8200080B
:10017000A1820008A5820008A982000800000000F2
:10018000AD820008B1820008B5820008B98200087B
:10019000BD820008C1820008C5820008C98200082B
:1001A000CD820008D1820008D58200082DE9F04FE9
:1001B00080460FF23060A5B015461E46D0E90023F8
:1001C000CDE91223002004910D900DF1500A6FF03B
:1001D000004900E065190020ADF8020012AB4FF0B5
:1001E000FF3229460DF1020001F093F80446012C7C
:1001F00004DA2878441EA441E443E40FBDF8020069
:1002000025280CBFA4F1010BA346BBF1010F0EDBA7
:100210002F4617F8011B0498C0470028049000F0EF
:10022000F3800D98401CBBF1010B0D90F1D1BDF88E
:100230000200252807D100200790089009900A9015
:100240000B900C9005E00028C4D10D98D2E240F04C
:10025000010015F8011F2029F9D023290DD02B29E1
:1002600004D02D2906D030290AD00CE040F002003D
:1002700080B2EEE740F00400FAE740F00800F7E74C
:1002800040F01000F4E72A290ED13168316051F8AE
:10029000042B3160002A0F9204D5514240F0040033
:1002A0000F9180B26D1C11E000210F9109E00F99B0
:1002B000494505D001EB810302EB430130390F9131
:1002C0006D1C2A78A2F130010A29F0D329782E2951
:1002D00003D04FF0FF310E911DE015F8011F2A29C0
:1002E00007D1316831606D1C51F8042B31600E92DA
:1002F00011E000210E9109E00E99494505D001EB6E
:10030000810302EB430130390E916D1C2A78A2F172
:1003100030010A29F0D3ADF840000FF2D04029781F
:1003200001F016F808B115F8010B8DF842009DF8A0
:100330004200682802BF29786829622005D06C280D
:1003400004BF28786C2803D171208DF842006D1C01
:1003500014A8069015F8014BB4F125002AD01C38DA
:1003600000F0D480001F022840F2D080133800F043
:10037000F580093800F0CA80801E00F05C81401EC4
:1003800000F03581401E022840F2C080001F00F0BE
:100390002E81401F00F08B80401E00F0DF80401E49
:1003A00035D0C01E0BD0801E00F0D880C01E00F0DB
:1003B000D58063E125208DF85000012067E19DF88C
:1003C00042006C283068306014D050F8047B3060F4
:1003D00005970E9C002C04D5384600F0C9FF044652
:1003E00006E022460021384600F0DEFF00B1C41BC3
:1003F00008944DE150F8042B306002A9404600F00B
:1004000033FA002840F144814FF0FF30F2E13168C7
:1004100031603C2451F8040B31600021CDE9020128
:1004200014A80590DDE90201069F11B908B90E9ADA
:10043000B2B10206120FA0EB02123032D2B2631E2A
:100440003A2AA8BF27320009DA5540EA01700909A3
:1004500008BF00281C4603D0059AE3199A42E8D346
:10046000E0190590C4F13C010E980891814209DA27
:10047000401A0A904FF6EF71BDF840000840ADF801
:10048000400005E1002840F103819DF8400000F0A4
:100490001400102840F0FC800F98079A801A0A9ADE
:1004A000801A441A012CC0F2F3800A94F0E09DF8FF
:1004B000420062281AD0682806D06A280CD06C281E
:1004C0001CD0712808D019E03068306050F8041B47
:1004D00030600D980880DBE03068306050F8042B05
:1004E00030600D98C117C2E90001D1E0306830607A
:1004F00050F8041B30600D980870C9E03068306017
:1005000050F8041B30600D980860C1E03068C01DD1
:1005100020F007023260D2E9000108323260CDE9F2
:100520000201002902D507982D210AE0BDF84000FC
:10053000810702D507982B2103E0C00705D507984E
:10054000202100F80A10401C079014A807990818E9
:100550000590214602A800F091FB99E09DF8420029
:100560006C280DD0712818BF6A2809D13068C01DC9
:1005700020F007023260D2E900010832326005E063
:100580003168316051F8040B31600021CDE902017E
:100590009DF84200682803D1DDE9020180B20BE03A
:1005A000622803D1DDE90201C0B205E0742818BF5A
:1005B0007A2804D1DDE902010021CDE902019DF88C
:1005C000400000072ED5DDE90201002908BF002800
:1005D00028D044F02000782824D10798302100F852
:1005E0000A10401C411C079100F80A401AE09DF8CF
:1005F0004200314600F001F9CDE90201002902DA9A
:1006000007982D210AE0BDF84000810702D5079820
:100610002B2103E0C00705D50798202100F80A1018
:10062000401C079014A8079908180590214602A8B5
:1006300000F0A0FA2CE09DF842006C2809D00120BF
:1006400007903068306050F8041B30608DF850100F
:100650001EE03068306001AA50F8041B3060ADF82D
:1006600004100020ADF8060002A94FF0FF300E90F4
:10067000404600F0F9F800280AD5C5E625208DF897
:100680005000012007901CB18AF801400220079019
:100690000F980799401A0A99401A0899401A0B991D
:1006A000401A0999401A0C99441A9DF840004007D5
:1006B00010D42020012C8DF800000BDB27460123ED
:1006C0006A4602A9404600F000FE00287FF49CAE76
:1006D0007F1EF4D1DDF81CB0BBF1000F14AF0DD0BC
:1006E00017F8011B0498C047002804903FF48CAE13
:1006F0000D98401CBBF1010B0D90F1D130208DF80D
:1007000000000A9F012F0ADB01236A4602A9404626
:1007100000F0DBFD00287FF477AE7F1EF4D1DDF81A
:1007200020B0059FBBF1000F0DD017F8011B0498F6
:10073000C047002804903FF467AE0D98401CBBF101
:10074000010B0D90F1D130208DF800000B9F012F8F
:100750000ADB01236A4602A9404600F0B6FD0028E4
:100760007FF452AE7F1EF4D105980899DDF824B0CD
:100770000F18BBF1000F0DD017F8011B0498C047EC
:10078000002804903FF440AE0D98401CBBF1010BD3
:100790000D90F1D130208DF800000C9F012F0ADB65
:1007A00001236A4602A9404600F08FFD00287FF42D
:1007B0002BAE7F1EF4D19DF8400040077FF50BADB6
:1007C0002020012C8DF80000FFF605AD01236A46BC
:1007D00002A9404600F079FD00287FF415AE641EA2
:1007E000F4D1F8E40000000000000000686A6C74B6
:1007F0007A4C000025B0BDE8F08F622826D068282A
:100800001DD06A2808D06C2827D0712804D07428FD
:1008100023D07A280CD020E00868C01D20F0070003
:100820000860D0E900230830086019461046704778
:100830000A680A6052F8040B0A60002170470A68CF
:100840000A6052F8040B0A6000B20BE00A680A6002
:1008500052F8040B0A6040B204E00A680A6052F8D9
:10086000040B0A60C11770472DE9F44F0D4694B090
:10087000D5F830A0BAF1000F804648BF6FF0004AAB
:1008800000F0BEFD696B401801900FF66C20D0E9B6
:100890000023CDE9022395F83800400702D40198DF
:1008A000412805D240200DF110090190002609E0F1
:1008B00000F0ACFD5FEA0009F8D14FF0FF3056E1DF
:1008C000AAEB040ABAF1010FC0F2CE801498018895
:1008D00002AA0DF1010000F0F1FD0028044600F12C
:1008E000DE801498008810B9641E00F1D880A245FB
:1008F000C0F2BA80686901992218914280F0A28002
:100900006E634042296A401AA969401A696A401A0E
:10091000E969401AA96A461A95F83800400710D4C8
:100920002020012E8DF800000BDB374601236A469C
:100930002946404600F0C9FC002840F0B0807F1EE8
:10094000F4D1D5F814B0BBF1000F4F460DD017F815
:10095000011BA868C0470028A86000F0A080E86AD2
:10096000401CBBF1010BE862F1D130208DF8000092
:100970002F6A012F0ADB01236A462946404600F010
:10098000A4FC002840F08B807F1EF4D1D5F818B06D
:10099000EF68BBF1000F0CD017F8011BA868C04727
:1009A0000028A8607BD0E86A401CBBF1010BE8621C
:1009B000F2D130208DF800006F6A012F09DB01238E
:1009C0006A462946404600F080FC002867D17F1E19
:1009D000F5D1E868A969D5F81CB00F18BBF1000F74
:1009E0000CD017F8011BA868C0470028A86056D093
:1009F000E86A401CBBF1010BE862F2D130208DF8AF
:100A00000000AF6A012F09DB01236A4629464046F0
:100A100000F05BFC002842D17F1EF5D195F838002C
:100A200040070DD52020012E8DF8000008DB0123A2
:100A30006A462946404600F048FC80BB761EF6D147
:100A400000266E61224668690DF10101484400F0FC
:100A500043FD6869201868611498801C1490801EFA
:100A6000008800287FF42CAF686B6969401A296AF6
:100A7000401AA969401A696A401AE969401AA96AC4
:100A8000A0EB010A95F83800400710D4BAF1010F25
:100A90000DDB5446A8682021C047A86010B94FF06C
:100AA000FF365DE0E86A401C641EE862F2D16B69C3
:100AB0004A462946404600F008FC0028EFD12C6A3F
:100AC000012C0ADBA8683021C0470028A860E6D0C6
:100AD000E86A401C641EE862F4D1AB69EA68294602
:100AE000404600F0F2FB0028D9D16C6A012C0ADBE9
:100AF000A8683021C0470028A860D0D0E86A401C10
:100B0000641EE862F4D1E868A969EB690A1829460D
:100B1000404600F0DAFB0028C1D1AC6A012C0ADBA8
:100B2000A8683021C0470028A860B8D0E86A401CF7
:100B3000641EE862F4D195F8380040070ED5BAF18A
:100B4000010F0BDBA8682021C0470028A860A6D0B1
:100B5000E86A401CBAF1010AE862F3D16E616E6383
:100B600004A881451CBF484600F0F2FC304615B091
:100B7000BDE8F08F2DE9FA4E05460A462F696F2A27
:100B800008BF082405D041F02000782814BF0A24AB
:100B900010243C26D5E90001642A18BF692A814641
:100BA0008A4605D1002903DAD9F100096AEB4A0A1D
:100BB000BAF1000F08BFB9F1000F0CD1286B50B982
:100BC000082C36D195F83800000732D530203B2666
:100BD00087F83B002DE0E31748465146224600F0D7
:100BE000F7FCA4FB0023A9EB02023032D2B2A6F13B
:100BF000010B3A2A5E4603DB9DF80030513B9A1800
:100C00000BF8072081465FEA010A08BFB9F1000F1F
:100C100003D0E868F1198842DDD3082C09D195F892
:100C20003800000705D5F05D302802D0761E302050
:100C3000F055C6F13C00A861F119E960296B8842C2
:100C400008DA081A28624FF6EF71288F08402887C3
:100C5000BDE8F38E00290ED595F8381001F0140187
:100C6000102908D1696B6A69891A2A6A891A0E1AC9
:100C7000012EA8BF2E62BDE8F38E00002DE9F24FD1
:100C800004468EB0D4E90001CDE9020104AF9DF81D
:100C9000380040F0200BBBF1610F0AD0206B002818
:100CA00048BF062004D408BFBBF1670F01D1012063
:100CB00020636168C1F30A5040F2FF7290421CD178
:100CC000080304BF2068002809D10320A0619DF813
:100CD000380061381A2836D30FF2306108E003205B
:100CE000A0619DF8380061381A2829D30FF21461E9
:100CF000E068032200F0F0FBBEE1012816DA20468E
:100D000000F0DDFC012811DB00250020BBF1610FA4
:100D100020D1E168302201F8012B4A1CE2609DF8E5
:100D20003820612A0CBF782258220FE0626840F216
:100D3000FE3161F31E52451A62604FF0FF30E5E765
:100D40000FF2BC51D4E70FF2C051D1E70A706169CC
:100D5000891C616110B90026002584E1BBF1610F97
:100D600040F09880206B00284CBF2126461CD4E917
:100D700000ABDDE902010022002300F0C1FC36B225
:100D80003ABF8BF00040CDE902A0CDE902AB06F1FD
:100D900001082D1FB8F1010F8DF810200DF111077A
:100DA00036DBDDE902010022002300F0C1FC2FD276
:100DB0001C2102A800F0D4FCDDE9020100F05AFD7C
:100DC000A8F10708B8F1010F814609DB00F07EFDAC
:100DD00002460B46DDE9020100F090FDCDE902017B
:100DE000F81D072105E009F00F0200F8012D4FEA78
:100DF0002919B9F1010F01DB491EF4D5491E5CBF69
:100E0000002200F8012DF9D5C71DB8F1010FC8DA8D
:100E10000DF11100391AB142B8BF0E4636B230009A
:100E20000DF111072FD4884206DA04A94118497838
:100E30000829A8BF0F2100DA002104AA821800E0C7
:100E4000761E12F80139401E8B42F9D00F2904D1C9
:100E500004A941184A78521C4A70002802D504AFF0
:100E6000761C2D1D36B2701E0DD4C1190A78303291
:100E7000D2B23A2A03DB9DF838303A3B9A18401E2A
:100E800001F80129F2D5206B002840F1EC80701E9A
:100E90002063E8E0DDE902010022002300F030FCDD
:100EA0003CBF81F00041CDE902012DB247F29750DD
:100EB00068434B49DFF82C9190FBF1F52DB2C5F159
:100EC000070ABAF1010F90461CDBDDE902675FEA11
:100ED000CA7007D542464B463046394600F0CEFD33
:100EE00006460F464046494642464B464FEA6A0A86
:100EF00000F0C4FDBAF1000F80468946E7D1CDE984
:100F0000026724E0CAF1000A0026374F14E05FEAC6
:100F1000CA7007D542464B463046394600F0AEFD12
:100F200006460F464046494642464B4600F0A6FD5F
:100F30004FEA6A0A80468946BAF1000FE7D1DDE937
:100F4000020132463B4600F06BFECDE90201BBF1E7
:100F5000660F0CBF05F10A000620216BDFF88C90AC
:100F60004618142EA8BF132630208DF810000DF15E
:100F70001107012E3CDBDDE9020100F091FC07F1D5
:100F8000080104220A23B0FBF3F303EB8307A0EB71
:100F90004700303001F8010C0A20B3FBF0F000EB01
:100FA0008007A3EB47033033521E01F8023DE9D11D
:100FB000083E012E01F10807DBDBDDE9020100F04C
:100FC0006FFC00F08DFC02460B46DDE9020100F0EB
:100FD00095FC00224B4600F051FDCDE90201CAE725
:100FE000A0860100000024400000F03F84D7974114
:100FF0000DF11100381A0DF1110702E0401E6D1EAF
:101000007F1C39783029F9D0BBF1660F02D12DB29F
:10101000691C04E0BBF1650F0CBF01210021226BAC
:101020008E1836B2B042B8BF064636B231001AD476
:10103000814204DAC85D3528A8BF392000DA3020A3
:10104000CA19521E00E0761E12F80139491E834269
:10105000F9D0392802D1C85D401CC855002902D5F5
:101060007F1E761C6D1C2DB29DF83810009533B292
:101070003A46204600F003F80FB0BDE8F08F2DE9A6
:10108000F04786B006468A4690461D4600F011FF9E
:10109000012D406A376B90F8009002DA01250FF2BB
:1010A00070284AF02000BDF93840662808BF641C4B
:1010B00012D0672876D114F1040F79DBBC4277DABD
:1010C00096F83800641C000702D4BD42B8BF2F4612
:1010D00024B23F1B48BF002724B2F068B169012C3D
:1010E00021DA4A1C30230B54012F03DA96F838100A
:1010F000090702D502F80090521CB261E742B8BF5E
:101100007C4224B26142E7197162AF42B8BF3D46EA
:10111000B3692DB2F5612A464146181800F0DCF992
:10112000781BB062BAE00818A54216DA2A46414692
:1011300000F0D2F9B1696918601B012FB1617062CA
:1011400003DA96F83800000705D5F06801F800903A
:10115000F069401CF061B762A0E02246414600F011
:10116000BBF9B06920182D1B012F03DA96F838104F
:10117000090703D5F16800F80190401C2DB2B06159
:10118000AF42B8BF3D46F068B3692DB22A4604EBC2
:101190000801181800F0A0F9B0692818B061781B90
:1011A00070627BE0BAF1610F14D14FF0700A16E063
:1011B000BD4204DA96F83810090758BF2F467F1E43
:1011C00048BF0027BAF1670F14BF4FF0450A4FF030
:1011D000650A04E0BAF1410F08BF4FF0500AB16947
:1011E000F0684A1CB261012F18F8013B0B5403DA76
:1011F00096F83810090715D5531CB36102F8009012
:10120000012F0FDB6D1E2DB2AF42B8BF3D462DB290
:101210002A464146181800F05FF9B0692818B061F5
:10122000781B7062F068B1690918200081F800A08D
:1012300004D42B20487001F1020804E02D224A70EA
:1012400001F102086442002502AF08E00A22684664
:1012500000F048FE019807F8010B6D1C009C21B2BC
:101260000129F3DA022D06DA4AF02000652804BFCE
:10127000302008F8010B4DB9302008F8010B07E0C9
:101280006D1E02A8285C303008F8010B012DF7DA3A
:10129000F068B1690818A8EB0000F06196F8380012
:1012A00000F0140010280DD17069B1690818716A36
:1012B0000818F1690818B16A0818716B8842BCBF38
:1012C000081A306206B0BDE8F087F8B504460D464E
:1012D00016461F46002077B116F8011BA868A047E4
:1012E000A86030B1E86A401CE86200207F1EF3D19C
:1012F000F2BD4FF0FF30F2BD000000000000000022
:101300006E616E004E414E00696E6600494E4600A9
:101310003000F8B504460D4616461F4600F0F3FDB2
:101320003B4632462946204601B0BDE8F04000F079
:1013300000BE03681AB95A1E026008467047197841
:1013400000290FBF4FF0FF30591C0160187870471B
:101350000278C9B28A421AB11CBF10F8012FF9E70E
:1013600018BF002070470268531C0360117070475B
:1013700000F10103810704D010F8011B89B1810736
:10138000FAD10268B2F10131914311F0803F04BFFC
:1013900050F8042FF6E710F8011B11B110F8011BEB
:1013A000FBE7C01A70470000C9B2830706D0521E7F
:1013B00022D310F8013B9942F7D11FE0083A13D32A
:1013C00002F1040241EA012141EA014150F8043BE3
:1013D000121F21BF4B40A3F1013C2CEA030C1CF06F
:1013E000803FF3D0C9B2001F083210F8013B521EF3
:1013F00028BF91EA030FF8D818BF0120401E70479C
:1014000080B500F080FD012002BD000070B50546EA
:1014100005F10F00C408C046C046E400A54232D220
:10142000082C04D2082402E0083000F091F8224889
:10143000026811000CD1011D0A6802B31368A342AF
:1014400038BF111DF8D310E01D68A5420DD2191D3B
:101450000B68002BF8D11268011D00E0191D0B6804
:1014600093420CD01D68A542F8D361B10D682A687B
:10147000A2F10803A3420AD26A680A600FE000F0F2
:101480007BFD0028D0D1C046C046002070BD631946
:101490000B60121B6E685E600B681A602C60096836
:1014A00000291DBF4A68002A091D00210160C046AD
:1014B000C04605F1080070BD900B012070B50446D0
:1014C0000D46164600F01FFD324629462046BDE86F
:1014D000704000F021BD000062B38B0708D0521E9F
:1014E00011F8013B00F8013B00F024808B07F6D196
:1014F000830740F0208000BF103A07D330B4B1E832
:101500003810103AA0E83810F9D230BC530724BF85
:10151000B1E80810A0E8081044BF51F8043B40F8B7
:10152000043BD20724BF31F8022B20F8022B44BF22
:101530000B7803707047083A07D3B1E80810083AEF
:1015400040F8043B40F804CBF7D25307E4E700002F
:1015500000B9704738B5A0F108042068082833D3D3
:1015600010F0070F30D1C046C0461848416809B195
:101570008C4203D26160446017E019464B680BB19E
:10158000A342FAD30B685D18AC421BD3A54204D129
:101590002268D2180A600C4607E04A681AB123682C
:1015A0001B199A420ED362604C60616851B1226887
:1015B00013198B4206D1002303600868801820604D
:1015C00048686060C046C04631BD0000900B0120F5
:1015D0001B4213D1094236D12AB18446B0FBF2F046
:1015E00002FB10C2704700F0DDBCFCD300220023D8
:1015F00070470B000200002100207047904271EB01
:10160000030CF6D370B5B1FA81F4B3FA83F52C1B51
:10161000A340C4F1200532FA05F63343A2405FF03F
:101620000046E64002E05B085FEA3202841A71EB92
:10163000030524BF204629467641F4D302000B005F
:101640003000002170BD012ACFD970B5140C20D014
:10165000B1FA81F4B2FA82F5C4F120046419B4F14C
:101660002006D6D3B2405FF00044F440002502E0EB
:1016700052085FEA3303C61A71EB020E24BF3046EC
:10168000714664416D41F3D302000B002000290034
:1016900070BD0C46B1FBF2F102FB11452D0445EA89
:1016A0001045B5FBF2F402FB145580B240EA054543
:1016B000B5FBF2F002FB105240EA044070BD30B4BA
:1016C000436803F0004201211B031B0B436004BF6E
:1016D0000368002B08D10DE00368DD0F45EA4404E0
:1016E00044605B000360491E4468E302F4D52303B1
:1016F0001B0B436043681A434260084630BC704786
:101700004FF4001C1CEB410F94BF1CEB430F09E08E
:1017100041EA030C50EA4C0C52EA0C0C03D29942F9
:1017200008BF9042704714BF8B428242704700004E
:101730004FF4001C1CEB410F94BF1CEB430F09E05E
:1017400041EA030C50EA4C0C52EA0C0C03D28B42D7
:1017500008BF8242704714BF994290427047000010
:1017600070B504460D466068C0F30A5040F2FF7140
:10177000884207D16068000304BF2068002817D0A2
:10178000022070BD20B92046FFF799FF012866DAD4
:10179000012D0FDB40F2FF71091A8D420AD36068F8
:1017A00000284CBF9FED2F0B9FED300B84ED000BFD
:1017B000012070BD4142A942616806DA6FF31E51F3
:1017C000401941EA0050606040E0401E63684519DE
:1017D000012205F1350062F31F53352801F0004165
:1017E000636003D361600020206070BD002015F1AC
:1017F0001F0F04DA206823600022203562606A42ED
:1018000012D0401E25688041C2F12003C0439D4094
:1018100045EAD07025686668D54006FA03F32B4385
:1018200023606368D340636062680A43B0F1004F8D
:10183000626003D80DD12078C0070AD52068401C0B
:101840002060206828B96068401C60604FF0FF305D
:1018500070BD6068884204BF20680028F6D100206F
:1018600070BD00BF000000000000F0FF000000009D
:101870000000F07FF446400D40EAC120490006D246
:1018800000F014F8004248BF6FF00040604700F0DD
:101890000DF84FF0004188428CBF08464042604737
:1018A000400D40EAC120490080F00D8040F000402A
:1018B000490DA1F58061491C05D4D1F11F0154BF28
:1018C000C840C01770474FF000007047010040F15A
:1018D0000980F446404200F005F851F000416047AD
:1018E000010000BF09D0B0FA80F18840C91CC1F5E1
:1018F0008461090501EBD02140057047F0B44FF039
:10190000004591EA030F44BF6B4000F057BB00BF96
:10191000841A71EB030604D26E40001BB141121908
:1019200073414FF4001C1CEB410F34BF7CEB4306AA
:1019300084E00C0DA4EB1356362E7DDC012E43DC27
:1019400045EAC32343EA525312BFD20292025B0814
:10195000240545EAC12141EA5051D2EBC02099410A
:1019600025D407D1B0FA80F610FA06F164D0002031
:10197000203608E0B1FA81F6B140C6F1200220FA23
:1019800002F21143B0404FEAF474B4EB465434F021
:1019900001064FEA74040AD8D6F50016760D04F055
:1019A0000044F04061FA06F25040F1404840C00A5D
:1019B00040EA415021F0004128BF5FEA500550F154
:1019C000000044EBD12137E045EAC323DB0A45EAB6
:1019D000C121C90AB6F120050EDD42EA0242120C0D
:1019E000C5F1200603FA06F6EB4042EA06056D4211
:1019F000984161F100010DE062FA06F5F2405540B0
:101A000063FA06FC82EA0C02F3405A406D429041B0
:101A100061EB030111F4801F05D1641E620502D041
:101A20006D004041494121F48011430875F10043A4
:101A300050F1000041EB0451F0BC70471CEB410F2A
:101A400015D223F0004352EA43060BD04FEA4C0C68
:101A5000BCEB410F04D80C0D661E342EB7DDEBE74E
:101A6000801A994150EA410608BF0021E4E708BF07
:101A70001CEB430F28BF6FF00001DDE7B0B581EA32
:101A8000030C0CF0004C40F2FF7515EA11541DBF19
:101A900015EA1357AC42AF4239E0E41923EA455343
:101AA00043F48013C90241F0004141EA505EC7028D
:101AB0001100A7FB020200284FF00000EEFB0120FE
:101AC0004FF00001E3FB072118BF42F0010240186C
:101AD00000214941E3FB0E01A4F580640F0302D20B
:101AE00052004041494154F101046CDD470872F154
:101AF000004250F1000051EB0451A1F580115CBF90
:101B000041EA0C01B0BD4CEA05510020B0BD05EA28
:101B10001357AC4214BFAF4241E050EA410E1CBF24
:101B200052EA430E02E061460020B0BD24423C442C
:101B30001BD15FEA070EF6D0090302BF0146002061
:101B4000AEF1140EB1FA81F7AEEB070401FA07FE0D
:101B50000C37C7F1200100FA07F7C8404EEA000E23
:101B600023EA455343F48013A2E733F00043B3FA6A
:101B700083F704BFB2FA82FE77440B3FE41BB7F150
:101B8000200E2FBF02FA0EF3BB40C7F1200E22FA3F
:101B90000EFE38BF43EA0E03BA40641C82E750EAE7
:101BA000410E14BF52EA430E6FF000014FF40017CC
:101BB00017EB430F8ABF194617EB410FB5E74CEA05
:101BC00005510020B0BDD4F10104B4F120070FDAB3
:101BD000C4F12007520828BF42F0010210FA07F5AD
:101BE00001FA07F7E1BF2A43E0403843E1400FE044
:101BF000352C98DCC7F1200452EA400220FA07F2A3
:101C000018BF42F0010231FA07F0A1400A43002157
:101C100072F1004250F1000051EB0C01B0BD000028
:101C20002DE9F04140F2FF7581EA030C0CF0004C05
:101C300015EA11541DBF15EA1357AC42AF42E9E053
:101C4000BC41C1F31301C3F31303801A994143F458
:101C5000801304D2641E4000494180185941C902D2
:101C600041EA5051B1FBF3F603FB1611A2FB0675D6
:101C7000D7EBC020A94102D2761E80185941C90273
:101C800041EA5051B1FBF3FE03FB1E11A2FB0E759E
:101C9000D7EBC020A94103D2AEF1010E8018594103
:101CA000890241EA9051760546EA8E2EB1FBF3F6A1
:101CB00003FB1611A2FB0675D7EB8020A94102D2C7
:101CC000761E80185941C90241EA50514EEA060E6B
:101CD000B1FBF3F603FB1611A2FB0675D7EBC02090
:101CE000A94102D2761E80185941C90241EA5051D9
:101CF000B1FBF3F703FB1711A2FB0735D3EBC020B1
:101D0000A94167F100070CBF004247F0010766F3E5
:101D1000D5274FEA1E31B80814F5806414DDBD07DD
:101D200075F1004250EB0E5051EB045111F5801F3C
:101D30005CBF41EA0C01BDE8F0814CF07F6141F0ED
:101D4000E0410020BDE8F081BD076D0840EA0E507B
:101D500041F48011D4F10104B4F120060ADAC4F18F
:101D600020060200E04001FA06F3E1401843B240C9
:101D700015430EE0342C14DCC6F1200445EA40057E
:101D80006D0820FA06F2154321FA06F0A1400D4332
:101D9000002175F1004250F1000051EB0C01BDE84B
:101DA000F08100205FEA0C01BDE8F081CFB9921804
:101DB0005B41B3FA83F704BFB2FA82F6BF190B3F57
:101DC000B7F120062FBF02FA06F3BB40C7F1200689
:101DD00022FA06F638BF3343BA401CB1E419641E38
:101DE0002FE77F4231F00041B1FA81F404BFB0FA2D
:101DF00080F6A4190B3CB4F120062FBF00FA06F1BF
:101E0000A140C4F1200620FA06F638BF3143A040B5
:101E10003C1B16E7AC421ABF05EA1357AF4214E069
:101E200050EA41061CBF52EA4306BFE750EA4107A9
:101E3000304661461CBF41EA0551BDE8F08152EAD7
:101E4000430C08BFC143BDE8F08100204FF40016E9
:101E500016EB410F98BF16EB430F08BF16EB410F6F
:101E600024BFC14305E016EB430F0CBF61464CEAAB
:101E70000551BDE8F081000080B5134800F008F975
:101E80000FF24C020FF244010160426241600FF216
:101E90004402826381600FF24402C16001614161CA
:101EA00081618162C16201634163C2630164416413
:101EB00001BD10B5044800F0EBF80446206808B9ED
:101EC000FFF7DAFF204610BD1C00002000000000D4
:101ED0002E00000066616C73650000007472756509
:101EE0000000000091FBF2F303FB1211C0E9003186
:101EF0007047000010B50446DFF8180000F0C8F87D
:101F000050F8240010BD80B5DFF8080000F0C0F8DC
:101F1000806902BDAC00002030B430B90FF2480037
:101F2000D0E90045C2E900451BE00170012030BC4A
:101F3000704730B431B90FF23800D0E90045C3E939
:101F400000450EE01AB930BC6FF00100704708B1CF
:101F50000A7802800978481E804130BCC043C00F17
:101F60007047002030BC70470000000000000000F7
:101F700000000000000000000749086808B10020C8
:101F800070470648C008C00008600549C908C90074
:101F9000091A0160704700BF2C0C012027050020A2
:101FA0002007002070470000F0B44FF0004591EA90
:101FB000030C44BF6B40FFF7ABBC00BF841A71EB4E
:101FC000030603D2001BB141121973414FF4001CE8
:101FD0001CEB410F34BF7CEB430443E00C0DA4EB3E
:101FE0001356352E50DC45EAC323DB0A45EAC121EE
:101FF000C912B6F120050DDD63FA05F6EB4086EA5D
:102000000305124218BF45F00105C01851F1000147
:102010000CD213E062FA06F5F2405540F3415A4003
:10202000B340F3405A408018594107D349085FEA4A
:1020300030005FEA350528BF45F0010501F5801144
:10204000420875F1004250F1000041EB0451F0BC30
:102050004FF4001C1CEB410F38BF70470020090DE6
:10206000090570471CEB410F10D252EA43060BD012
:10207000BCEB410F05D80C0DAB43661E342EB5DD0D
:1020800002E0AB4380185941F0BC7047F0BC704788
:102090007047000003460846C2680169521C491E89
:1020A00000290161C26003D40068012200211847A1
:1020B0004FF0FF307047034608461146C268521E73
:1020C00011F1010FC26002D000680022184770476A
:1020D0002DE9F04F05460FF668408BB0D0E9008936
:1020E000CDE9098901914FF0FF3618680290344616
:1020F0000020049003920FF650476FF0004809E06B
:10210000002C48BF00249DF8220000B1641C0398F5
:10211000401C03900020ADF8000009AB0399324643
:102120006846FFF7F6F80128814609DA0398007837
:10213000B0F1010969EB09096FEA09004FEAD079AA
:10214000BDF8000000F00CFE00F034FE50B304981F
:10215000401C0490012201980021A847824600F00B
:1021600029FE0028F3D10498401E1AF1010F0490B3
:1021700013D0019800225146A8470398BDF80010DB
:102180004844252903902DD100782A2832D103987C
:10219000401C0390401E00782DE0002C40F1888008
:1021A000304686E0BDF8000025280CBFA9F1010BE0
:1021B000CB46DDF80CA0BBF1010BDED40498401C2B
:1021C0000490012201980021A8471AF8011B8842B7
:1021D000F1D0024601A92846FFF76DFF002C67DA0F
:1021E000002465E0BDF80000002893D1002C5FDAE0
:1021F00000245DE000208DF82000002006900AE019
:102200000698404505D000EB800301EB43003038D1
:102210000690501C0390039A1178A1F130000A280F
:10222000EED3079638461178FFF792F820B103985D
:10223000401C0390401E00788DF821009DF821007D
:10224000682801BF03990A78682A622006D06C28A2
:1022500002BF039908786C2804D171208DF8210001
:10226000481C0390039801780FF6E420FFF770F8FC
:10227000A8B90498401C0490012201980021A847A5
:10228000814600F097FD0028F3D10498401E19F113
:10229000010F049003D0019800224946A84701A9E4
:1022A000284600F009F80128BFF62AAF002C00D418
:1022B00020460BB0BDE8F08F70B505460C460020F7
:1022C000A077A0680078253858D01C3823D0001F8C
:1022D000022820D913381AD0C01E66D0801F1AD009
:1022E000801E12D0401E12D0401E022813D9001F9B
:1022F0000DD0401F13D0401E012808D9001F3BD02D
:10230000801E04D0C01E02D055E000224FE02846B7
:10231000BDE87040ACE12846BDE870409FE2207FF8
:10232000002835D1607F622808D0682816D06A2836
:102330000BD06C2819D0712807D016E0606850F8CF
:10234000041B6060E068087022E0606850F8042BAD
:102350006060E068C117C2E9000119E0606850F8E8
:10236000041B6060E068088012E0606850F8041B9D
:102370006060E06808600BE0012218E0E068401C43
:10238000E060012220680021A8470646252E01D1E1
:10239000012070BD324621462846FFF78CFE16F11B
:1023A000010F08D14FF0FF3070BD4FF0FF322846CB
:1023B000BDE8704002E0002070BD00002DE9F04F44
:1023C00089B0824600200E4605900024707F6C285C
:1023D00017460CBF4FF00109A1460FF67C12002FE3
:1023E000D2E90001CDE9060129D5B068401CB060F2
:1023F00000785E2806D1B068401CB060401E0078AE
:10240000039000E00394B56828785D280CBF681C31
:1024100028465D21FEF79CFF002800F01981411B32
:1024200001910295B0600198032808DB821E029892
:102430002D21401CFEF7B8FF08B1012005907069FE
:10244000012804DA002F14BF6FF000400120306132
:10245000307F40B97068011D00687160B9F1000FEC
:1024600014BF8046049000250AE00498401C0490A4
:1024700000F801BD0120B077B069401EB0610224B0
:102480003069401E3061F0681DD4401CF0600122AC
:1024900030680021D04783461BF1010F18D15A46FE
:1024A00031465046FFF707FE17B1022C00F0CC80F2
:1024B000022C00F0D980E00700F196801BF1010F9B
:1024C00040F0C68090E0401CF0604FF0FF3BE6E734
:1024D000012F02DB00F06EFC10E0002F51D50598B3
:1024E00078B90398019A00280298594604D1FEF75A
:1024F0005BFF0028D3D044E0FEF756FF0028CED182
:102500003FE00399019A002902995FFA8BF025D1E7
:1025100007E00B789842A4BF8B78834231DAC91C5C
:10252000D21E032A09D34B782D2BF2D011F8013B90
:10253000834218BF521EF4D123E0002AAFD011F815
:10254000013B834218BF521EF7D11AE00B78984224
:10255000A4BF8B788342A2DAC91CD21E032A0ED3F1
:102560004B782D2BF2D011F8013B834218BF521E3D
:10257000F4D194E711F8013B834290D0521E002A17
:10258000F8D1B9F1000F09D1307F00287FF477AF7F
:10259000B06900287FF469AF012480E7684606AB84
:1025A00005F800B06D1C2A4669460DF10200FEF7E1
:1025B000B0FE8346801C022821D8DFE800F0020725
:1025C0001800002D44F001043FF45AAF012D09DB3F
:1025D0006D1E68460022295CF068401EF06030687D
:1025E000D047F3E7E4B29CBB4FF0FF303DE0BDF8CD
:1025F000020020B96846FEF7BBFE00F1010B1BF19B
:10260000030F0BD14FF0000B08E06D1E684600224F
:10261000295CF068401EF0603068D047AB45F4DBC1
:10262000307F58B9B06908B9012429E7BDF8021014
:1026300028F8021B401E0121B177B06102247069A5
:10264000401E706100251BE7307F68B9B06908B98A
:1026500000200AE0B9F1000F03D00020A8F8000024
:1026600002E0049900200870012009B0BDE8F08F55
:102670002DE9F0430C4689B0804660690128B8BF57
:102680006FF000402061E9464046FFF703FD054634
:102690002B2D18BF2D2D08D18DF800502146404616
:1026A000FFF7F8FC0DF101090546A0680078002746
:1026B000642814BF75280A260DD0692808BF002693
:1026C00009D06F2808BF082605D070281ABF40F02F
:1026D000200078281026302D19D121464046FFF7DA
:1026E000D9FC054645F020000127C0B278280BD15F
:1026F000002E18BF102E13D121464046FFF7CAFC0A
:102700001026054600270BE056B9082608E006BB50
:102710000A261EE0206801220021C0470546012745
:10272000302D0BD12069411EE0682161401C002939
:10273000E060EFD54FF0FF35012700E04FB13020CA
:1027400009F8010B05E0206801220021C047054679
:10275000012715F1010F23D0E9B26129A8BF57392C
:1027600009DA4129A8BF373905DAA1F130020A2A6E
:1027700034BF3039FF21C9B2F0B2814210D20DF11D
:102780001F00814538BF09F8015B2069411EE068E0
:102790002161401C0029E060D5D54FF0FF350127AD
:1027A0002A4621464046FFF786FC3FB9E9450ABF65
:1027B00015F1010F00204FF0FF304DE0002089F8A7
:1027C0000000207F002846D1A0680078642818BF48
:1027D000692807D132460021684600F045FB0122F6
:1027E000A2770AE032460021684600F0EDFB0122A4
:1027F000A277A2681278702A28D0627F622A0CD051
:10280000682A17D06A2A0ED06C2A19D0712A0AD0E9
:10281000742A18BF7A2A13D018E0626852F8043B71
:102820006260187017E0626852F8043B6260C3E9A6
:10283000000110E0626852F8043B626018800AE010
:10284000626852F8043B6260186004E0626852F803
:10285000043B62601860012009B0BDE8F0832DE9F7
:10286000F04F0C4693B0814660690128B8BF6FF005
:102870000040206100254846FFF70CFC07462B2F3F
:1028800018BF2D2F0DF1080B08D18DF808702146C7
:102890004846FFF7FFFB0DF1090B07460026302FD6
:1028A0004FF00A0818D121464846FFF7F3FB0746C8
:1028B00047F02000C0B2782840F0F18030200BF8BB
:1028C000010B214678200BF8010B4FF01008484609
:1028D000FFF7E0FB0746E3E047F02000C0B26E28B8
:1028E0005BD10BF8010B21464846FFF7D3FB0746A7
:1028F00047F02000C0B26128A84640F0E9810BF8FB
:10290000010B21464846FFF7C5FB074647F020006C
:10291000C0B26E2840F0DC8121464846FFF7BAFB82
:102920000246282A19D021464846FFF7C4FB6E20EC
:102930000BF8010B00208BF80000207F002840F0EE
:10294000FA81B8F10B0F80F2D4812A46002102A847
:1029500000F016FCCDE90001D6E1E1682069491CD0
:10296000401E00282061E16005D42068012200217A
:10297000C847824601E04FF0FF3A504600F010FA97
:1029800000285746E9D1AAF130000A28E5D35F2F85
:10299000E3D0292F40F09C81C9E7692840F092805C
:1029A0000BF8010B21464846FFF774FB074647F03A
:1029B0002000C0B26E28A84640F08A810BF8010BB7
:1029C00021464846FFF766FB074647F02000C0B2A5
:1029D000662840F07D8121464846FFF75BFB40F0CA
:1029E0002001C9B2692906D0024621464846FFF7B0
:1029F00062FB66209CE721464846FFF74BFB0746F3
:102A000047F02000C0B26E2840F06281E168206982
:102A1000491C401E00282061E16005D42068012285
:102A20000021C847074601E04FF0FF3747F020007C
:102A3000C0B2692840F04C81E1682069491C401E01
:102A400000282061E16005D4206801220021C847E8
:102A5000074601E04FF0FF3747F02000C0B274286E
:102A600040F03681E1682069491C401E0028206141
:102A7000E16005D4206801220021C847074601E033
:102A80004FF0FF3747F02000C0B2792840F0208196
:102A900066204DE7206801220021C847074601262D
:102AA000302F0BD12069411EE0682161401C0029B4
:102AB000E060EFD54FF0FF37012600E016B130207F
:102AC0000BF8010BAA4605E0206801220021C84747
:102AD0000746012617F1010F24D0F8B26128A8BFDC
:102AE000573809DA4128A8BF373805DAA0F1300194
:102AF0000A2934BF3038FF20C0B2404512D2BAF1A3
:102B0000240FBABF0BF8017B0AF1010A6D1C206982
:102B1000411EE0682161401C0029E060D4D54FF0DF
:102B2000FF370126FFF7C5F9406A0078874211D1C7
:102B30000BF8017BE1682069491C401E00282061D8
:102B4000E16005D4206801220021C847074601E062
:102B50004FF0FF37BAF1000F21D105E020680122C4
:102B60000021C84707460126302F0BD120696D1E72
:102B7000411EE0682161401C0029E060EED54FF065
:102B8000FF370126002D0AD530200BF8010B6D1CF4
:102B900005E0206801220021C8470746012617F1F9
:102BA000010F24D0F8B26128A8BF573809DA4128AC
:102BB000A8BF373805DAA0F130010A2934BF303810
:102BC000FF20C0B2404512D2BAF1240FBCBF0BF8AF
:102BD000017B0AF1010A2069411EE0682161401C65
:102BE0000029E060D5D54FF0FF37012601E0002E27
:102BF0006ED0B8F10A0F02BF47F02001C9B26529B3
:102C000007D0B8F10A0F63D047F02000C0B2702897
:102C10005ED10BF8017B2069401E206111D4E06871
:102C2000401CE060012220680021C84707462B2F86
:102C300018BF2D2F13D10BF8017B2069401E206196
:102C400005D5E068401CE0604FF0FF3707E0E06822
:102C5000401CE060012220680021C847074600268A
:102C600005E0206801220021C84707460126302FD1
:102C70000BD12069411EE0682161401C0029E06001
:102C8000EFD54FF0FF37012600E016B130200BF8EA
:102C9000010B4FF0000A02E04FF0FF370126A7F1C9
:102CA00030000A2814D2BAF1080FBCBF0BF8017B20
:102CB0000AF1010A2069411EE0682161401C0029D7
:102CC000E060E9D4206801220021C8470746E5E713
:102CD0003A4621464846FFF7EEF9002E7FF42AAE29
:102CE00002A883450ABF17F1010F00204FF0FF3003
:102CF00022E00022002102A800F042FACDE9000102
:102D0000A9006846FEF72CFD0120A07760680568E1
:102D1000011D607F6C2803D16160DDE9000104E0E2
:102D200061604C28DDE9000102D1C5E9000102E043
:102D300000F028FA2860012013B0BDE8F08F0000F1
:102D40000000000000000000686A6C747A4C00000B
:102D500063436E5B00000000000000000000000004
:102D600000B54FF6FF71884283B00CD00FF22801F6
:102D7000D1E90023CDE90123014601AA6846FEF707
:102D80009DFB012803D04FF0FF3003B000BD9DF83C
:102D9000000003B000BD00000000000000000000C3
:102DA00010B504460120FFF7A5F82046BDE8104005
:102DB00000F030BA10B504460120FFF79BF820461A
:102DC000BDE8104000F031BA2DE9F84380460E000E
:102DD00091461D4608BF6E46474600E07F1C387886
:102DE000FFF7E8FF0028F9D138782D2816BF2B28E7
:102DF00017F8014B2B242B464A463146384600F043
:102E000035F83268974208BFC6F8008032689045AE
:102E10001DD1002908BF002807D12D2C1DD1B1F1EB
:102E2000004F1CD301D8012819D300F009FA222140
:102E300001600DB1012028602D2C19BF4FF0FF302B
:102E40006FF0004100204FF00041BDE8F4832B2CCF
:102E5000E3D14FF000439942E7D2BDE8F48340420A
:102E600061EB4101BDE8F4830023ADE72DE9F84FA4
:102E7000834686B018000F4615461CBF0020186018
:102E80005E4600E0761C3078FFF794FF0028F9D109
:102E900030782D2816BF2B2816F801AB4FF02B0ADF
:102EA000002D53D4012D51D0252D4FDA012D0ADBF1
:102EB000102D04BF3078302802BF707840F0200019
:102EC00078280ED10AE03078302818BF0A2508D1BA
:102ED000707840F02000782802D11025B61C00E060
:102EE0000825039600E0761C30783028FBD00024BB
:102EF000A046CDE904480FF2D400029600948DF864
:102F000004004FEAE57913E09DF80410401AC0B2BE
:102F10000090CDE90448A5FB040105FB08119DF8CC
:102F2000002009FB04110023841841EB0308761CE0
:102F3000307800F08BF901462A460FF29000FEF738
:102F400033FA0028E0D10398B04205D10FB1C7F899
:102F500000B00020002134E00FF298010298695C73
:102F6000301A401A23D4012814DA9DF800000021F9
:102F7000201A68EB010188450CD301D8844209D39B
:102F80002A46EB17FEF724FBDDE90423994208BF2C
:102F900090420CD000F054F922210160069810B143
:102FA0000699012008604FF0FF34A04605E0BAF111
:102FB0002D0F02D1644268EB480807B13E602046FD
:102FC000414607B0BDE8F08F00234FE73031323380
:102FD0003435363738396162636465666768696AB3
:102FE0006B6C6D6E6F707172737475767778797AB9
:102FF0000000000000004129211C191716151413A8
:1030000012121111111010100F0F0F0F0E0E0E0EC5
:103010000E0E0E0D0D0D0D0D0D0000002DE9F14DE4
:1030200081B006462DED028B88B0884614461F46B7
:103030000BA800F015F905460FB10021396020F00A
:103040000800012835D10220009004AB0B994246BC
:10305000304600F097F9060003D10020CDE90200C8
:103060001FE00598FEF732FCCDE90201022E18DBC5
:103070000DF11808761E9FED3D8BDDE9022351EC22
:10308000180BFEF7FBFC824658F8040B8B46FEF744
:103090001DFC52465B46FEF787FFCDE90201761E16
:1030A000EBD104980219DDE902013B4600F076FA03
:1030B00044E0022837D1009004AB0B9942463046D9
:1030C00000F03EFB060003D10020CDE902001FE026
:1030D0000598FEF7FBFBCDE90201022E18DB0DF18E
:1030E0001808761E9FED238BDDE9022351EC180BA7
:1030F000FEF7C4FC824658F8040B8B46FEF7E6FB4D
:1031000052465B46FEF750FFCDE90201761EEBD139
:10311000049902A8FEF724FBDDE902013B462246A2
:1031200000F03CFA0AE0032802D10020134905E030
:10313000042806D14FF0FF306FF00041CDE90201C5
:1031400002E00020CDE90200280743BFDDE90201CB
:1031500081F0004141EC100B9DED020B08B051ECE9
:10316000100BBDEC028BBDE8FC8D000000000000E0
:1031700065CDCD41000000000000B0410000F07FAF
:1031800000234BE74FEAF17CBCF1E04C2CBFBCF5CF
:10319000001F11E05FEA4C0C34BFBCF17F5F2EE0F2
:1031A0005FEA9C0C4FEA0C1C4FEA3C0CC10071F129
:1031B00000414CEB50707047C90241EA5051C002C7
:1031C00018BF41F0010141F000414FEA6C50C0F1DD
:1031D0000900212810D240EACC7CCCF1200C11FA55
:1031E0000CF070F10040CCF1200C21FA0CF00CF046
:1031F000004C40EB0C0070474FEACC707047490020
:1032000011F5001F04D84FEACC10FF30C0057047FD
:10321000C8177047A0F161011A2901D20120704737
:1032200041381A288041C00F7047A0F109010529D3
:1032300001D3202801D101207047002070470000F1
:103240000148FEF725BF00001801002010B5044614
:103250000120FEF74FFE2046BDE8104000F07CBB89
:103260002DE9F84304460D462668002700E0761C49
:103270003078FFF79FFD0028F9D130782D280CBF5A
:1032800008272B2800D1761C307840F020016E29C9
:1032900027D1707840F02000612802BFB07840F05C
:1032A00020006E2802D02668002747E0F61CB046B2
:1032B000042798F80000282840D118F8019F4846B4
:1032C000FFF76EFD0028F8D1A9F130000A28F4D3E9
:1032D00098F800005F28F0D029282FD108F10106C6
:1032E0002CE069292DD1707840F020006E2802BFB3
:1032F000B07840F02000662802D0266800271DE044
:1033000016F8030F40F02000692802BF707840F0E3
:1033100020006E2847F0030710D1B07840F020005D
:10332000692802BFF07840F02000742806D1301DD3
:10333000017841F02001792908BF461CF5B12E60C3
:103340001CE0302802BF707840F02000782813D1AC
:10335000B01C01782E2908BF401C0078A0F1610143
:10336000062921BFA0F14101062930380A2803D2DD
:10337000B61C47F0020701E047F001072660384617
:10338000BDE8F2832DE9F04F8DB08046169800EB32
:10339000C00A1C46BAF12E0F4FF0000BA8BF4FF029
:1033A0002D0AC4F800B00D469146C4F804B00026BA
:1033B00001E06D1C012628783028FAD000276846E5
:1033C00004E02168491C21606D1C01262978A1F1C7
:1033D00030020A2A05D2BA45F3DB303939547F1C52
:1033E000F2E7FEF766FD406A29780078814208BF5F
:1033F0006D1C47B904E02068401E20606D1C01264A
:1034000028783028F7D02878A0F130010A290BD28B
:10341000BA4506DB6946303878547F1C2068401E68
:1034200020606D1C0126EEE7BA4519DA68461AF8E5
:103430000000052806DB6846504410F8011C491CB2
:1034400000F8011C57462068401C206008E06846D0
:10345000381810F8010C48B92068401C20607F1E05
:10346000012FF4DA17B98DF800B00127002E58D0DB
:10347000092297FBF2F2C7F1090002EBC20212180F
:10348000092092FBF0F0002100EBC000101A0DD0D3
:103490004FF0010B0AE054F82B30085C03EB830378
:1034A00000EB430044F82B00521C491CB9420BDAD4
:1034B000092392FBF3F303EBC303D31A6846EAD163
:1034C000085C0BF1010BEDE7287840F0200065283F
:1034D00027D1284615F8011F174A2B2916BF2D2979
:1034E00015F8011B2B214FF0000C002309E093423B
:1034F00004DA03EB83070EEB4703303B6D1C4FF000
:10350000010C95F800E0AEF130070A2FEFD32D291A
:1035100008BF5B42216859182160BCF1000F08BF49
:103520000546B9F1000F03D006B1A846C9F80080DE
:1035300058460DB0BDE8F08F00E1F5050000000031
:1035400038B5054640F2FF712DED028B6868C0F377
:103550000A50884243EC182B06D0012806DA284688
:10356000FEF7ADF8012801DB002406E06A6840F2AE
:10357000FE3161F31E526A60441AD5E9000153EC32
:10358000182BFEF77BFAC5E90001BDEC028B21B2D6
:103590002846BDE83440FEF7E3B80000F8B52DED4D
:1035A000028B140003B482B01F4600F09080DDE966
:1035B00002230020002100F0D5F900F08880002CC3
:1035C0009FED468B40D564420FF22C1508260CE087
:1035D000E00707D5D5E9000153EC182BFEF74EFAAA
:1035E00041EC180B64080835761E002C18BF002E1D
:1035F000EED102A9684600F0C5F9DDE9020153ECFD
:10360000182BFEF70DFBCDE90201BDF9001002A851
:10361000FEF7A6F805004DD5002C4DD002A968464E
:1036200000F0B0F9DDE902012E4A2F4BFEF726FA31
:10363000CDE90201BDF9001002A8FEF791F80500DE
:1036400038D5641EEAD137E0012C33DB0FF2A80530
:103650000826E00707D5D5E9000153EC182BFEF743
:103660000DFA41EC180B64100835761E012C01DBB5
:10367000002EEED153EC182B02A8FFF761FF0500D6
:1036800018D5012C18DB02A9684600F07BF9DDE9AA
:103690000201164A164BFEF7F1F9CDE90201BDF918
:1036A000001002A8FEF75CF8050003D5641E012C8B
:1036B000E9DA01E02DB20DB1012D08D1FFF7C0FD0F
:1036C000222101601FB1386840F001003860DDE957
:1036D000020104B0BDEC028BF4BD0000000000004C
:1036E0000000F03F436FAC642806C80A3CBF737FFC
:1036F000DD4F1575000000000000000000002440B0
:103700000000000000005940000000000088C34095
:103710000000000084D797410080E03779C341431F
:10372000176E05B5B5B89346F5F93FE9034F384D27
:10373000321D30F94877825A3CBF737FDD4F1575D3
:103740002DE9F54F8BB000251698C0EBC0061C463E
:10375000242EA8BF232625608A466560AB4603E079
:103760000AF1010A4FF0010B9AF800003028F7D057
:103770000FF2B4180027CDF800800DF1040906E01F
:103780002068401C20600AF1010A4FF0010B9AF8F2
:10379000001016224046FDF707FE50B1BE42EFDB97
:1037A000009A0FF29C11801A405C07F809007F1CF8
:1037B000E9E7FEF77EFB406A9AF800100078814244
:1037C00008BF0AF1010A5FB906E02068401E2060C8
:1037D0000AF1010A4FF0010B9AF800003028F4D0EA
:1037E0009AF8001016224046FDF7DEFD88B1BE4271
:1037F0000ADB0FF24C11A0EB0800405C01A97854E1
:103800007F1C2068401E20600AF1010A4FF0010B66
:10381000E6E7BE4218DA01A8305C082806DB01A8FA
:10382000301810F8011C491C00F8011C37462068AC
:10383000401C206008E001A8381810F8010C48B9B5
:103840002068401C20607F1E012FF4DA17B98DF824
:103850000450012720688000BBF1000F206053D086
:10386000072297FBF2F2C7F10701C2EBC20251181F
:10387000072291FBF2F20020C2EBC2028A1A05D0A5
:10388000012503E044F82520491C401CB8420EDA0B
:10389000072391FBF3F310F80920C3EBC303CB1A02
:1038A0000EBF6D1C54F8253002EB0312EAE79AF8BC
:1038B000000040F02000702826D150461AF8011F61
:1038C000184E2B2916BF2D291AF8011B2B21002277
:1038D00000230AE0B34205DA03EB830207EB42025E
:1038E000A2F130030AF1010A01229AF80070A7F14F
:1038F000300CBCF10A0FEDD32D2908BF5B422168C3
:103900005918216002B982460C9830B1BBF1000F02
:1039100008BFDDF82CA0C0F800A028460DB0BDE817
:10392000F08F000000E1F5053031323334353637A1
:10393000383961626364656641424344454600002C
:10394000000102030405060708090A0B0C0D0E0FFF
:103950000A0B0C0D0E0F0000A0F141011A2938BF0F
:103960002030704790420CD141EA030C50EA4C0CD5
:1039700007D0994205D14FF4001C1CEB410F38BF12
:103980008942704738B50C4605466068C0F30A5056
:1039900040F2FF71884209D100202880606800034E
:1039A00005BF206800280220012032BD012804DA6A
:1039B0002046FDF784FE01280ADA626840F2FE31F3
:1039C00061F31E526260401A28804FF0FF3032BD12
:1039D0000020288032BD00002DE9F04F85B00400A2
:1039E0000D0016001F00DDF83880DDF83C90B6B2FF
:1039F000B00000F02BFE8346BBF1000F0DD0542029
:103A000000F024FE8246BAF1000F02D0CAF830B0AE
:103A100005E0584600F0ABFE01E000208246BAF116
:103A2000000F14D000200390CDF808A0CDF804902A
:103A3000CDF800803B00B6B232002900200000F033
:103A40000DF8504600F078F80120049002E05FF095
:103A5000FF300490049805B0BDE8F08F2DE9F94FD0
:103A600083B00C0015000E9E0F9FDDF84080A8006B
:103A70000190A5200090D8F830B0009A01995846DE
:103A800000F028FFD8F8300010EB8500001F8146B9
:103A90005FEAD9095FEAC90919F00700002807D0D1
:103AA000502080F31188BFF34F8FBFF36F8FFEE775
:103AB00000208246BAF1100F0CD21AF804001AEB5B
:103AC000080181F834001AF80400002802D01AF125
:103AD000010AEFE7002088F84300072E01D30620F3
:103AE0000600C8F82C60C8F844600020C8F84800F8
:103AF00018F1040000F030FF18F1180000F02CFF5E
:103B0000C8F81080D6F10700C8F81800C8F824805B
:103B10000020C8F84C00002088F85000049A03994F
:103B2000484600F059FFC8F80000002F01D0C7F840
:103B3000008005B0BDE8F08F10B5040000F0DBFF99
:103B4000DFF8AC050068401CDFF8A4150860DFF85A
:103B5000A405006800280AD1DFF898050460DFF8A2
:103B600090050068012811D100F08CFB0EE0DFF811
:103B700088050068002809D1E06ADFF8781509682F
:103B8000C96A884202D3DFF86C050460DFF86C056F
:103B90000068401CDFF864150860DFF86405006801
:103BA0000121E26A91400843DFF854150860211DA5
:103BB000DFF85005E26A142303FB020000F0CFFE99
:103BC00000F0B6FFDFF83005006800280FD0DFF8FE
:103BD00024050068C06AE16A884208D25FF080501C
:103BE000DFF864170860BFF34F8FBFF36F8F10BD0E
:103BF00038B504000025002C15D0DFF884060068D5
:103C0000002807D0502080F31188BFF34F8FBFF3F7
:103C10006F8FFEE700F04CF80021200000F0B2FCAE
:103C200000F04EF80500002D08D15FF08050DFF85D
:103C300018170860BFF34F8FBFF36F8F31BD1CB5EE
:103C4000DFF81C0901900020009000238022DFF89B
:103C500014190FF20160FFF7BFFE0400012C02D11E
:103C600000F0E6FF0400012C16D1502080F31188EB
:103C7000BFF34F8FBFF36F8F5FF0FF30DFF8EC18AB
:103C800008600120DFF8701408600020DFF84C168F
:103C9000086000F0CAFE0AE014F1010F07D15020BD
:103CA00080F31188BFF34F8FBFF36F8FFEE713BD13
:103CB000DFF8CC050068401CDFF8C41508607047C9
:103CC00070B500240025DFF8B8050068002807D18A
:103CD000502080F31188BFF34F8FBFF36F8FFEE743
:103CE00000F009FFDFF898050068401EDFF8901526
:103CF0000860DFF88C05006800285CD1DFF8F0036D
:103D00000068002857D0DFF86008006800282AD033
:103D1000DFF85408C068C068040014F1180000F00F
:103D200047FE201D00F044FEDFF8D40300680121A7
:103D3000E26A91400843DFF8C8130860211DDFF8EC
:103D4000C403E26A142303FB020000F008FEE06AE9
:103D5000DFF8A0130968C96A8842D4D30120DFF8CC
:103D600020180860CFE7002C01D000F0F8FADFF847
:103D700000080668002E0ED000F026F8002803D0B8
:103D80000120DFF8FC170860761E002EF4D1002019
:103D9000DFF8DC170860DFF8E807006800280AD0C1
:103DA000012005005FF08050DFF89C150860BFF32C
:103DB0004F8FBFF36F8F00F0BBFE280070BDDFF8A0
:103DC0001C150968080070472DE9F0410026DFF84E
:103DD000B004006800287CD1DFF800050068471CAB
:103DE000DFF8F8040760002F24D1DFF888070068A7
:103DF0000068002807D0502080F31188BFF34F8F50
:103E0000BFF36F8FFEE7DFF86C0700688046DFF8CE
:103E100068070068DFF85C170860DFF85C07C0F827
:103E20000080DFF858070068401CDFF85017086072
:103E300000F095FADFF83407006887423CD3DFF8DA
:103E4000340700680068002805D15FF0FF30DFF814
:103E50001C17086030E0DFF81C070068C068C06805
:103E6000040060680500AF4203D2DFF80007056078
:103E700022E0201D00F09CFDA06A002803D014F170
:103E8000180000F095FD9E4800680121E26A91400B
:103E900008439B490860211D9A48E26A142303FBEA
:103EA000020000F05CFDE06A92490968C96A884234
:103EB000C5D301200600C2E792488E490968C96A45
:103EC000142202FB01000068022809D30120060029
:103ED00006E0DFF89C060068401CDFF894160860D6
:103EE000DFF89C060068002801D0012006003000A1
:103EF000BDE8F08138B5DFF888030068002804D0F9
:103F00000120DFF87C16086048E00020DFF870161A
:103F1000086078480068006B05005FF0A530040079
:103F20002868A04208D16868A04205D1A868A042CC
:103F300002D1E868A04207D06E48006810F1340151
:103F40006C48006801F0D7F86D490968B1FA81F151
:103F5000D1F11F0108006B49142202FB001109680E
:103F6000002907D1502181F31188BFF34F8FBFF390
:103F70006F8FFEE7634A142303FB002211004A6897
:103F800052684A604A6811F108039A4202D14A68AD
:103F900052684A604968C968564A116031BD38B5EF
:103FA00004000D00002C07D1502080F31188BFF3CE
:103FB0004F8FBFF36F8FFEE7DFF85006006810F1F8
:103FC0001801200000F0D7FC0121280000F0DAFAE7
:103FD00031BD70B504000D001600002C07D1502033
:103FE00080F31188BFF34F8FBFF36F8FFEE7A448B4
:103FF0000068002807D1502080F31188BFF34F8F4D
:10400000BFF36F8FFEE755F00040DFF80016096838
:104010008861DFF8F805006810F11801200000F051
:104020009EFC0121300000F0ADFA70BD70B50400B7
:104030000D001600002C07D1502080F31188BFF32B
:104040004F8FBFF36F8FFEE7DFF8C005006810F1F8
:104050001801200000F083FC002E02D05FF0FF303A
:1040600005003100280000F08DFA70BD70B5040025
:10407000E068C0680500002D07D1502080F311884A
:10408000BFF34F8FBFF36F8FFEE715F1180000F0FD
:104090008FFC7B480068002813D1281D00F088FCA5
:1040A000174800680121EA6A9140084314490860F2
:1040B000291D1448EA6A142303FB020000F04FFC98
:1040C00005E015F11801DFF8A00400F048FC0948EC
:1040D0000068C06AE96A884206D201200600012011
:1040E000DFF82C15086001E000200600300070BDEC
:1040F000EC0B0120DC0B0120F80B0120080C012047
:10410000F40B012038090120F8B504000D005C48CB
:104110000068002807D1502080F31188BFF34F8F2B
:10412000BFF36F8FFEE755F000402060E0680600A7
:10413000002E07D1502080F31188BFF34F8FBFF3BB
:104140006F8FFEE7200000F033FC301D00F030FCE4
:10415000DFF8C00400680121F26A91400843DFF8EB
:10416000B4140860311DDFF8B004F26A142303FBB5
:10417000020000F0F4FBDFF894040068C06AF16A02
:10418000884206D2012007000120DFF8841408606D
:1041900001E0002007003800F2BD002807D15021BF
:1041A00081F31188BFF34F8FBFF36F8FFEE7DFF806
:1041B000CC1309680160DFF8641409684160704736
:1041C000F8B504000D00002C07D1502080F31188B1
:1041D000BFF34F8FBFF36F8FFEE7002D07D1502045
:1041E00080F31188BFF34F8FBFF36F8FFEE700F0AE
:1041F00082FC3A480768286810F1010F02D10020BC
:1042000006001DE0DFF8740300682168884205D0CD
:104210006068874202D30120060011E06068381A06
:10422000296888420AD22868C01B6168081828607B
:104230002000FFF7B2FF0020060001E00120060089
:1042400000F076FC3000F2BD0120DFF8C4130860F6
:104250007047000010B5040000F042F8DFF8B80322
:104260000068022808D35FF08050DFF8B4130860BC
:10427000BFF34F8FBFF36F8F00F03CFFECE7000000
:10428000140C012010B500200400072C08D2DFF820
:104290008803142101FB040000F04FFB641CF4E7C9
:1042A000DFF8800300F049FBDFF87C0300F045FBFA
:1042B000DFF8B40200F041FBDFF8700300F03DFBD3
:1042C0009E4800F03AFBDFF85C03DFF8A8120860B4
:1042D000DFF85403DFF85813086010BDF00B01201D
:1042E00038B5DFF85003006800282BD0FFF7E0FC5A
:1042F000DFF838030068002801D1012400E0002421
:10430000FFF7DEFC002CECD100F0F5FBDFF81C031E
:10431000C068C0680500281D00F04AFBDFF8E8020D
:104320000068401EDFF8E0120860DFF8080300684C
:10433000401EDFF80013086000F0FAFB280000F0D0
:1043400005F8CEE731BD000004ED00E010B5040033
:10435000206B00F00CFA200000F009FA10BDDFF825
:10436000141209680968002905D15FF0FF31DFF8F0
:10437000FC21116009E0DFF8FC110968C968C9680F
:1043800008004168DFF8E42111607047DFF8A812E7
:104390000968002902D10121080009E0DFF89C1218
:1043A0000968002902D10221080001E0002108006B
:1043B000704738B504002500002C4FD0E86ADFF8BC
:1043C0004C120968C96A884248D2A869002806D4F4
:1043D000DFF838020068C06AD0F10700A861686998
:1043E000DFF83412EA6A142303FB0211884230D149
:1043F000281D00F0DDFA002812D1DFF81C02E96A5E
:10440000142202FB01000068002809D1DFF8040231
:1044100000680121EA6A91408843DFF8F8110860DA
:10442000DFF8E8010068C06AE862DFF8E8010068C8
:104430000121EA6A91400843DFF8D8110860291D7C
:10444000DFF8D401EA6A142303FB020000F087FAC4
:1044500004E0DFF8B8010068C06AE86231BD70B5F9
:10446000040025000026002C54D0DFF8A0010068CD
:10447000854207D0502080F31188BFF34F8FBFF3E0
:104480006F8FFEE7A86C002807D1502080F31188B9
:10449000BFF34F8FBFF36F8FFEE7A86C401EA86479
:1044A000E86A696C884235D0A86C002832D1281D92
:1044B00000F07EFA002812D1DFF85C01E96A1422CC
:1044C00002FB01000068002809D1DFF848010068FC
:1044D0000121EA6A91408843DFF838110860686C6E
:1044E000E862E86AD0F10700A861DFF828010068F7
:1044F0000121EA6A91400843DFF818110860291D7C
:10450000DFF81401EA6A142303FB020000F027FA23
:1045100001200600300070BDDFF8F01009688969DD
:104520000800DFF8E8100968DFF8E0201268D26AB6
:10453000D2F107028A617047000000004C0B012095
:10454000DFF8C8000068002805D0DFF8C000006868
:10455000816C491C8164DFF8B4000068704700007A
:10456000100C012060810008240B01200C0C01209C
:10457000FC0B0120E00B0120E40B0120040C0120C6
:10458000000C0120F8B504000D00244807681F48FE
:104590000068001D00F00CFA00280BD11B480068D1
:1045A0001C4909680122C06A12FA00F031EA0000D1
:1045B0001849086014F1010F08D1002D06D01348E6
:1045C0000068011D1E4800F0CAF91BE0E019060052
:1045D0000E4800684660BE4207D20C480068011DC4
:1045E0001348006800F0C7F90CE008480068011D96
:1045F0001448006800F0BFF913480068864201D2F1
:1046000011480660F1BD0000EC0B0120DC0B01201D
:10461000000C0120F40B012038090120F00B0120CF
:1046200004ED00E0FC0A0120100B0120380B0120F2
:10463000E40B0120E80B0120F80B0120140C0120F1
:104640004C0B0120E00B01200C0C01202DE9F04166
:1046500004005FF00008FFF72BFB97480068002874
:1046600001D100F0C0F895480068044269D1002CDF
:1046700015D093480068041914F0070F0FD014F1F7
:10468000080014F00701441A14F0070F07D0502057
:1046900080F31188BFF34F8FBFF36F8FFEE7002CBD
:1046A0004FD088480068A0424BD387480600864810
:1046B000006805006868A04205D22868002802D07A
:1046C0002E002D68F6E77C480068854239D03068B6
:1046D0007B49096808188046286830607848006877
:1046E00040006968091B884214D26019070017F05E
:1046F0000700002807D0502080F31188BFF34F8FA8
:10470000BFF36F8FFEE76868001B78606C6038004D
:1047100000F0A0F86B4800686968401A69490860B1
:104720006848006869490968884203D2654800689A
:104730006649086068686149096808436860002044
:104740002860FFF7BDFAB8F1000F01D100F0D9FCE5
:1047500018F00700002807D0502080F31188BFF31D
:104760004F8FBFF36F8FFEE74046BDE8F08170B515
:1047700004002600002C35D051480068361A350058
:1047800068684E490968084207D1502080F31188B3
:10479000BFF34F8FBFF36F8FFEE72868002807D065
:1047A000502080F31188BFF34F8FBFF36F8FFEE768
:1047B000686842490968084214D02868002811D165
:1047C00068683E49096888436860FFF771FA3D48A8
:1047D0000068696808183B490860280000F03AF84A
:1047E000FFF76EFA70BD30B45FF48033384C2200AE
:1047F00012F0070F05D0D21DD208D2009B1A344CFC
:10480000E3181100304C216000242F4D6C605C18BF
:1048100022002B4C2468121BD208D200264C2260A6
:104820000024254D2D686C600024234D2D682C60DC
:104830000800141A4460204C246804604468234D26
:104840002C6044681F4D2C605FF000441B4D2C60B1
:1048500030BC704710B41C4B1A001368834201D25D
:104860001268FAE7110053685B18834204D1536859
:104870004468E31853601000010043685B18146833
:10488000A34211D113680C4C2468A34208D043689A
:1048900014686468E318436013681B68036005E0EC
:1048A000054B1B68036001E013680360824200D07F
:1048B000106010BC70470000980B0120A40B012071
:1048C000788100089C0B0120880B0120A00B01209F
:1048D0002007002062F30F2262F31F42401810F0FD
:1048E000030308D0C91A1FD3DB0748BF00F8012D06
:1048F00028BF20F8022D130030B414461546103995
:1049000028BF20E93C00FAD8490728BF20E90C005D
:1049100048BF40F8042D890028BF20F8022D48BF69
:1049200000F8012D30BC7047C91818BF00F8012DE0
:10493000CB0728BF00F8012D704710F10801416036
:104940005FF0FF31816010F10801C16010F10801D2
:1049500001610021016070470021016170474268D8
:104960004A6093688B60936859609160086103683E
:104970005B1C0360704710B40B6813F1010F02D188
:104980000469220008E010F1080422005468246839
:10499000A34201D35268F9E754684C604C68A160A7
:1049A0008A60516008610468641C046010BC704730
:1049B000010008698A684B689A604A688B685A6087
:1049C00042688A4201D18A68426000220A61026814
:1049D000521E026000687047001F5FF08073036022
:1049E000001F4B085B000360001F0FF215030360FC
:1049F00014380260001F7FF0020303602038704704
:104A00007C48006810F1010F07D0502080F3118816
:104A1000BFF34F8FBFF36F8FFEE7502080F31188F5
:104A2000BFF34F8FBFF36F8FFEE700B583B07248BF
:104A300000687249884207D1502080F31188BFF383
:104A40004F8FBFF36F8FFEE76B4800686C49884259
:104A500007D1502080F31188BFF34F8FBFF36F8FC2
:104A6000FEE7684801780191FF21017001788DF817
:104A700000109DF8001011F05001634A11700721D9
:104A8000624A11609DF8001009060AD55F4909685D
:104A9000491E5E4A11609DF8001049008DF8001013
:104AA000F0E75A4909680902584A116057490968EC
:104AB00011F4E061554A1160019901705448006891
:104AC00050F47000524908605148006850F070403E
:104AD0004F49086000F059F800204649086000F08E
:104AE00057FB4C48006850F040404A49086000F0CD
:104AF00043FB00200EBD502080F31188BFF34F8F81
:104B0000BFF36F8F3B480068401C3A490860394842
:104B1000006801280BD140480068000607D05020EB
:104B200080F31188BFF34F8FBFF36F8FFEE770479D
:104B300030480068002807D1502080F31188BFF367
:104B40004F8FBFF36F8FFEE72A480068401E294948
:104B5000086028480068002802D1002080F31188EE
:104B6000704780B5502080F31188BFF34F8FBFF39B
:104B70006F8FFFF729F9002803D05FF08050264996
:104B80000860002080F3118801BD244800684FF4BC
:104B90007A71B0FBF1F0401E2149086007202149DD
:104BA00008607047EFF305821000102810D31E4AEA
:104BB0001268825C1100144A1278C9B2914207D27D
:104BC000502282F31188BFF34F8FBFF36F8FFEE740
:104BD0000E4A1268154B1B6813F4E0639A4207D221
:104BE000502282F31188BFF34F8FBFF36F8FFEE720
:104BF000704700001400002000ED00E071C20F417A
:104C000070C20F4100E400E0300C0120D40B012001
:104C100020ED00E034EF00E004ED00E0180000209B
:104C200014E000E010E000E07C8100080CED00E002
:104C30001CB5002400F0FAF9DFF86C0400680028C5
:104C40000ED0DFF8680401900220009000234FF49A
:104C50008072DFF85C140FF20510FEF7BDFE040051
:104C6000002C07D1502080F31188BFF34F8FBFF382
:104C70006F8FFEE7200016BD2DE9F04385B00400DC
:104C80000D0016001F00DDF830805FF00009002CD9
:104C900007D1502080F31188BFF34F8FBFF36F8F80
:104CA000FEE7DFF804040068002825D0009501968F
:104CB0000294062D17DAFFF769FB022809D10023B9
:104CC00042466946DFF8E003006800F0FEFA8146DC
:104CD00012E0002300226946DFF8CC03006800F0F0
:104CE000F4FA814608E000233A006946DFF8B80389
:104CF000006800F0C3FB8146484605B0BDE8F0837C
:104D0000F8B504000D00DFF8AC030068C068C768A0
:104D1000381DFFF74DFEF86901281BD123002A003A
:104D2000B8690119380000F090F8002812D000206E
:104D300000900023220000213800FFF79DFF0600AD
:104D4000002E07D1502080F31188BFF34F8FBFF39F
:104D50006F8FFEE73800796A8847F1BD38B50400E7
:104D6000684600F043F805000099280000F003F8B9
:104D700000F093F8F4E770B582B004000E00FEF77F
:104D800097FF684600F04BF80500009800282AD1EC
:104D9000002E08D1A54206D3FEF792FF290020007D
:104DA000FFF7AEFF21E0002E08D0DFF80C0300680B
:104DB0000068002801D1012600E000263200611BB6
:104DC000DFF8E402006800F093FDFEF779FF0028A9
:104DD0000BD15FF08050DFF8E4120860BFF34F8F13
:104DE000BFF36F8F01E0FEF76BFF73BD0100DFF8CB
:104DF000C42212681268002A01D1012200E00022B8
:104E0000D2B20A600A68002A06D1DFF8A822126826
:104E1000D2681268100001E000221000704738B517
:104E20000400FEF7CCFF0500DFF89402006885421D
:104E300004D200F0B3F80120206001E000202060DF
:104E4000DFF87C020560280032BD2DE9F041040046
:104E50000D0016001F005FF0000865602461AE427F
:104E60000CD3F01BA169884202D30120804611E0D7
:104E7000211D91480068FFF77EFD0BE0BE4204D281
:104E8000BD4202D30120804604E0211D894800680C
:104E9000FFF771FD4046BDE8F081F0B587B0002313
:104EA000002201A98048006800F05FFB002873D051
:104EB000019800280ED502AF002F07D1502080F3B3
:104EC0001188BFF34F8FBFF36F8FFEE7B968786823
:104ED0003A68904701980028E1D40398040060697B
:104EE000002802D0201DFFF763FD05A8FFF797FFFC
:104EF0000600019800280ED002280CD00BD30428FD
:104F000030D02ED3062806D041D3082829D002D38A
:104F1000092827D03FE0029B32000298A1690918B6
:104F20002000FFF792FF00281AD02000616A88470E
:104F3000E069012814D10020009000230298A169A3
:104F40000A1800212000FFF797FE0500002D07D169
:104F5000502080F31188BFF34F8FBFF36F8FFEE7B0
:104F60009DE79CE70298A061A069002807D1502026
:104F700080F31188BFF34F8FBFF36F8FFEE73300CD
:104F80003200A06981192000FFF75FFF87E720004A
:104F9000FFF7EDFB83E782E707B0F0BD2DE9F041B5
:104FA00082B0444800680068002834D04148006856
:104FB000C068006804003F480068C068C068070017
:104FC000381DFFF7F5FC3800796A8847F869012831
:104FD000E7D1B86900190500AC4207D27D603F6196
:104FE000391D34480068FFF7C6FCDAE7002000905E
:104FF0000023220000213800FFF73EFE8046B8F172
:10500000000F07D1502080F31188BFF34F8FBFF3FB
:105010006F8FFEE7C5E7274800680600264800684E
:105020002449086024480660BDE8F38180B5FFF795
:1050300062FD1D48006800281BD12248FFF77DFC57
:105040002148FFF77AFC1F481A4908601E481A4990
:105050000860002210210A2000F0F2F812490860CE
:1050600011480068002804D018490F48006800F073
:1050700027FCFFF75DFD01BD2DE9FF4104000D0098
:1050800016001F007FF00100009001940295039626
:1050900000233A0069460448006800F0EFF98046B2
:1050A000404604B0BDE8F081200C0120240C012012
:1050B00068810008180C01201C0C012004ED00E0A0
:1050C000280C0120600B0120740B01207081000866
:1050D000BFF34F8F0548006810F4E06004490843AF
:1050E00002490860BFF34F8F00BFFDE70CED00E001
:1050F0000400FA05704738B504000D00FFF7E8FF1B
:10510000FEE77047EFF30980BFF36F8F244B1A68F7
:105110001EF0100F08BF20ED108A20E9F04F10603C
:1051200008B44FF0500080F31188BFF34F8FBFF3E6
:105130006F8FFEF7DFFE4FF0000080F3118808BC90
:1051400019680868B0E8F04F1EF0100F08BFB0EC07
:10515000108A80F30988BFF36F8F7047104B19686E
:105160000868B0E8F04F80F30988BFF36F8F4FF005
:10517000000080F3118870470A480068006880F3D7
:10518000088862B661B6BFF34F8FBFF36F8F00DF41
:10519000DFF81400016841F47001016070470000FD
:1051A000DC0B012008ED00E088ED00E070B50400A4
:1051B0000D002600002E07D1502080F31188BFF388
:1051C0004F8FBFF36F8FFEE7FFF795FC3068F16BF1
:1051D000326C02FB010070600020B0633068B06088
:1051E0003068F16B491E326C02FB0100F0605FF029
:1051F000FF3086F844005FF0FF3086F84500002D50
:1052000012D13069002817D016F11000FEF72EFFDA
:10521000002811D05FF08050DFF8CC160860BFF393
:105220004F8FBFF36F8F07E016F11000FFF785FB7C
:1052300016F12400FFF781FBFFF77AFC012070BD17
:105240002DE9F84304000D001600002C07D1502072
:1052500080F31188BFF34F8FBFF36F8FFEE7002DF0
:1052600002D10020804602E005FB04F0804618F1E0
:105270004800FFF7EBF90700002F0AD017F14800AC
:10528000814600973300DBB24A462900200000F037
:1052900003F83800BDE8F2832DE9F04104000D0069
:1052A00016001F00DDF81880002D02D1C8F800801C
:1052B00001E0C8F80060C8F83C40C8F8405001213F
:1052C0004046FFF773FFBDE8F0812DE9F743040086
:1052D0000D001E005FF00008A146B9F1000F07D1D4
:1052E000502080F31188BFF34F8FBFF36F8FFEE71D
:1052F000002D03D1D9F84000002801D1012000E0A1
:105300000020C0B2002807D1502080F31188BFF3DD
:105310004F8FBFF36F8FFEE7022E03D1D9F83C0009
:10532000012801D1012000E00020C0B2002807D1EF
:10533000502080F31188BFF34F8FBFF36F8FFEE7CC
:10534000FFF724F8002802D10298002801D101209B
:1053500000E00020C0B2002807D1502080F311885F
:10536000BFF34F8FBFF36F8FFEE7FFF7C4FBD9F892
:105370003800D9F83C10884201D3022E28D13200DF
:105380002900484600F0DFF90700D9F8240000287A
:105390000FD019F12400FEF769FE002814D05FF049
:1053A0008050DFF844150860BFF34F8FBFF36F8F55
:1053B0000AE0002F08D05FF08050DFF82C1508605D
:1053C000BFF34F8FBFF36F8FFFF7B2FB012053E0A6
:1053D0000298002803D1FFF7ABFB00204CE0B8F1A6
:1053E000000F04D16846FEF7D8FE01208046FFF783
:1053F0009FFBFEF75DFCFFF77EFB99F9440010F17F
:10540000010F02D1002089F8440099F9450010F1FC
:10541000010F02D1002089F84500FFF789FB02A99E
:105420006846FEF7CDFE002820D1484600F037FA46
:10543000002815D0029919F11000FEF7B0FD48467A
:1054400000F0E6F9FEF73CFC00288ED15FF08050BA
:10545000DFF894140860BFF34F8FBFF36F8F84E7BA
:10546000484600F0D5F9FEF72BFC7EE7484600F0F1
:10547000CFF9FEF725FC0020BDE8FE832DE9F84FAB
:1054800004000D0016001F00A246BAF1000F07D15C
:10549000502080F31188BFF34F8FBFF36F8FFEE76B
:1054A000002D03D1DAF84000002801D1012000E0EE
:1054B0000020C0B2002807D1502080F31188BFF32C
:1054C0004F8FBFF36F8FFEE7022F03D1DAF83C0056
:1054D000012801D1012000E00020C0B2002807D13E
:1054E000502080F31188BFF34F8FBFF36F8FFEE71B
:1054F000FFF758FBEFF311808146502080F31188AD
:10550000BFF34F8FBFF36F8FDAF83800DAF83C1033
:10551000884201D3022F21D19AF945B03A002900DF
:10552000504600F010F94FFA8BFB1BF1010F0ED122
:10553000DAF8240000280ED01AF12400FEF796FDB8
:10554000002808D0002E06D00120306003E01BF1B7
:1055500001008AF845000120804601E000208046D5
:1055600089F311884046BDE8F28F2DE9F44783B0F6
:1055700004000D001E000027A146B9F1000F07D15D
:10558000502080F31188BFF34F8FBFF36F8FFEE77A
:10559000002D03D1D9F84000002801D1012000E0FE
:1055A0000020C0B2002807D1502080F31188BFF33B
:1055B0004F8FBFF36F8FFEE7FEF7E8FE002802D1A2
:1055C0000398002801D1012000E00020C0B200288B
:1055D00007D1502080F31188BFF34F8FBFF36F8F37
:1055E000FEE7FFF788FAD9F838A0BAF1000F41D0EA
:1055F000D9F80C0080462900484600F0F1F8002E4A
:105600001FD1BAF10100C9F83800D9F8000000280C
:1056100003D1FEF795FFC9F80400D9F8100000285F
:1056200024D019F11000FEF721FD00281ED05FF0F4
:105630008050DFF8B4120860BFF34F8FBFF36F8F55
:1056400014E0C9F80C80D9F8240000280ED019F114
:105650002400FEF70BFD002808D05FF08050DFF833
:1056600088120860BFF34F8FBFF36F8FFFF760FAA8
:10567000012065E00398002803D1FFF759FA0020C4
:105680005EE0002F04D16846FEF787FD0120070089
:10569000FFF74EFAFEF70CFBFFF72DFA99F94400DD
:1056A00010F1010F02D1002089F8440099F945005A
:1056B00010F1010F02D1002089F84500FFF738FAF8
:1056C00003A96846FEF77CFD00282DD1484600F06E
:1056D000D6F8002822D0D9F80000002807D1FFF71B
:1056E0000AFAD9F80400FEF764FEFFF721FA0399DD
:1056F00019F12400FEF753FC484600F089F8FEF744
:10570000DFFA00287FF46DAF5FF08050DFF8D8112A
:105710000860BFF34F8FBFF36F8F62E7484600F01A
:1057200077F8FEF7CDFA5CE7484600F071F8FEF72F
:10573000C7FA484600F0A3F800283FF452AF002013
:1057400004B0BDE8F0872DE9F04704000D00160015
:105750000027A06B8046206C002809D12068002813
:1057600038D16068FEF77BFE07000020606031E002
:10577000002E13D1D4F84090D4F808A04A4629004E
:105780005046FBF7A9FEA068216C0818A060A0682D
:10579000616888421ED32068A0601BE0D4F8409066
:1057A000D4F80CA04A4629005046FBF795FEE06865
:1057B000216C401AE060E0682168884203D260688A
:1057C000216C401AE060022E04D1B8F1000F01D024
:1057D000B8F1010818F10100A0633800BDE8F087B6
:1057E000F8B504000D00206C002810D0E068216C92
:1057F0000818E060E0686168884201D32068E060D2
:10580000266CE768320039002800FBF765FEF1BD21
:1058100070B50400FFF76FF994F945506DB2012D92
:105820000CDB606A002809D014F12400FEF71EFC8E
:10583000002801D0FEF708FD6D1EEFE75FF0FF3096
:1058400084F84500FFF774F9FFF755F994F94460BF
:1058500076B2012E0CDB2069002809D014F110006B
:10586000FEF704FC002801D0FEF7EEFC761EEFE701
:105870005FF0FF3084F84400FFF75AF970BD38B587
:105880000400FFF738F9A06B002802D101200500C1
:1058900001E000200500FFF74BF9280032BD38B5C4
:1058A0000400FFF728F9A06BE16B884202D10120C8
:1058B000050001E000200500FFF73AF9280032BD9D
:1058C00000231A00082A0ED2084B53F83230002B5E
:1058D00007D1064B43F83210044B13EBC203586058
:1058E00001E0521CEEE7704704ED00E0440A01209D
:1058F000F8B504000D0016002700FFF7FCF897F933
:10590000440010F1010F02D1002087F8440097F9FC
:10591000450010F1010F02D1002087F84500FFF784
:1059200007F9B86B002805D13200290017F12400CF
:10593000FEF77CFB3800FFF76BFFF1BD10B40A885F
:105940004240130093EA03130A8892B2DBB21C02AE
:1059500094EA1222DBB292EAC3041A00D2B212090C
:10596000D2B262400A8010BC70474FF6FF710180CE
:105970007047F8B504000D0026006846FFF7F5FFF4
:1059800000200700AF4206DA69463078FFF7D6FFFD
:10599000761C7F1CF6E7BDF80000F2BD00B59DB097
:1059A00000F0C6FC00F070F800F049F900F0EFF8E4
:1059B00000F019F900F0CCF800F0E8FCDFF8CC18A2
:1059C000086000F0E3FCDFF8C818086018A8DFF8EA
:1059D000C4181422FBF790FD002118A800F01EFE49
:1059E000DFF8B418086013A8DFF8B0181422FBF72A
:1059F00083FD002113A800F011FEDFF8A418086051
:105A00000EA8DFF8A0181422FBF776FD00210EA8DF
:105A100000F004FEDFF89018086009A8DFF88C1881
:105A20001422FBF769FD002109A800F0F7FDDFF85B
:105A30008018086004A8DFF87C181422FBF75CFDCE
:105A4000002104A800F0EAFDDFF86C180860DFF818
:105A50006C08D0E90023CDE90223002102A800F060
:105A600002FEDFF85C180860DFF85808D0E9002370
:105A7000CDE900230021684600F0F5FDDFF8481865
:105A8000086000F0C6FDFEE700B593B006A8DFF899
:105A90003C1891EC0C0B80EC0C0B01A8142100F0CD
:105AA000EBFD00200090DFF82808006850F08050DF
:105AB000DFF81C180860DFF81808006810F0805044
:105AC0000090009800200090DFF80808006850F46B
:105AD0004040DFF800180860DFF8F807006810F4AD
